:020000040800F2
:1000000000500020A1F10008A5510008B1510008DE
:10001000B9510008C1510008C95100080000000092
:10002000000000000000000000000000D1510008A6
:10003000DD51000800000000E9510008F5510008FA
:10004000E9F10008E9F10008E9F10008E9F1000828
:10005000E9F10008E9F10008E9F10008E9F1000818
:10006000E9F10008E9F10008E9F10008E9F1000808
:10007000E9F10008E9F10008E9F10008E9F10008F8
:10008000E9F10008E9F10008E9F10008E9F10008E8
:10009000E9F10008E9F10008E9F10008E9F10008D8
:1000A000E9F10008E9F10008E9F10008E9F10008C8
:1000B000E9F10008694F0008E9F10008E9F10008DA
:1000C000E9F10008E9F10008E9F10008E9F10008A8
:1000D000E9F10008E9F10008E9F10008E9F1000898
:1000E000E9F10008E9F10008E9F10008000000006A
:1000F0000000000000000000000000000000000000
:0C01000000000000000000005FF808F1A3
:1001100010B5054C237833B9044B13B10448AFF341
:1001200000800123237010BD70000020000000003B
:1001300018050108084B10B51BB108490848AFF372
:1001400000800848036803B910BD074B002BFBD0A3
:10015000BDE81040184700BF0000000074000020F8
:100160001805010870000020000000002DE9F05F74
:10017000DDF828C0DDF830E0DEF8004030F902ABF1
:1001800004F580590AEB693909F30F0B23F802BB18
:10019000CBF1000B0FFA8BFBB1F90070DEF80450C5
:1001A00007FB0A55B2F9008008FB0B54CEF800405B
:1001B000B1F90270DEF8084007FB0A44B2F9028088
:1001C00008FB0B45CEF80450B1F90470DEF80C5072
:1001D00007FB0A55B2F9048008FB0B54CEF808401F
:1001E000B1F90670DEF8104007FB0A44B2F9068048
:1001F00008FB0B45CEF80C50B1F90870DEF814502E
:1002000007FB0A55B2F9088008FB0B54CEF81040E2
:10021000B1F90A70DEF8184007FB0A44B2F90A8007
:1002200008FB0B45CEF81450B1F90C70DEF81C50E9
:1002300007FB0A55B2F90C8008FB0B54CEF81840A6
:10024000B1F90E70DEF8204007FB0A44B2F90E80C7
:1002500008FB0B45CEF81C50B1F91070DEF82450A5
:1002600007FB0A55B2F9108008FB0B54CEF820406A
:10027000B1F9127007FB0AF7B2F9128008FB0BF80C
:10028000B844CEF82480BCF1010C7FF475AFBDE812
:10029000F09F2DE9F041DDF81CE0DEF8005030F968
:1002A000028B05F5805708EB673808F30F0622F834
:1002B000026BC6F1000636B2B1F90070DEF80440F8
:1002C00007FB0645CEF80050B1F90270DEF8085081
:1002D00007FB0654CEF80440B1F90470DEF80C4078
:1002E00007FB0645CEF80850B1F90670DEF810504D
:1002F00007FB0654CEF80C40B1F90870DEF8144044
:1003000007FB0645CEF81050B1F90A70DEF8185018
:1003100007FB0654CEF81440B1F90C70DEF81C400F
:1003200007FB0645CEF81850B1F90E70DEF82050E4
:1003300007FB0654CEF81C40B1F91070DEF82440DB
:1003400007FB0645CEF82050B1F9127007FB06F7FF
:10035000CEF82470013BA0D1BDE8F0812DE9F04139
:10036000DDF81CE0DEF8004030F9026B04F580583F
:1003700006EB683808F30F0722F8027BB1F900702A
:10038000DEF8045007FB0654CEF80040B1F90270C5
:10039000DEF8084007FB0645CEF80450B1F90470BA
:1003A000DEF80C5007FB0654CEF80840B1F9067091
:1003B000DEF8104007FB0645CEF80C50B1F9087086
:1003C000DEF8145007FB0654CEF81040B1F90A705D
:1003D000DEF8184007FB0645CEF81450B1F90C7052
:1003E000DEF81C5007FB0654CEF81840B1F90E7029
:1003F000DEF8204007FB0645CEF81C50B1F910701E
:10040000DEF8245007FB0654CEF82040B1F91270F4
:1004100007FB06F7CEF82470013BA3D1BDE8F081BD
:100420002DE9F0414FF000064FF0000330F9024B88
:1004300031F9027B04FB073330F9025B31F9028B9F
:1004400005FB083330F9024B31F9027B04FB07331B
:1004500030F9025B31F9028B05FB083306EBA3167A
:100460004FF0000330F9024B31F9027B04FB0733F4
:1004700030F9025B31F9028B05FB083330F9024B8E
:1004800031F9027B04FB073330F9025B31F9028B4F
:1004900005FB083306EBA3164FF0000330F9024BBF
:1004A00031F9027B04FB073330F9025B31F9028B2F
:1004B00005FB083330F9024B31F9027B04FB0733AB
:1004C00030F9025B31F9028B05FB083306EBA3160A
:1004D0004FF0000330F9024B31F9027B04FB073384
:1004E00030F9025B31F9028B05FB083330F9024B1E
:1004F00031F9027B04FB073330F9025B31F9028BDF
:1005000005FB083306EBA3164FF0000330F9024B4E
:1005100031F9027B04FB073330F9025B31F9028BBE
:1005200005FB083330F9024B31F9027B04FB07333A
:1005300030F9025B31F9028B05FB083306EBA31699
:100540004FF0000330F9024B31F9027B04FB073313
:1005500030F9025B31F9028B05FB083330F9024BAD
:1005600031F9027B04FB073330F9025B31F9028B6E
:1005700005FB083306EBA3164FF0000330F9024BDE
:1005800031F9027B04FB073330F9025B31F9028B4E
:1005900005FB083330F9024B31F9027B04FB0733CA
:1005A00030F9025B31F9028B05FB083306EBA31629
:1005B0004FF0000330F9024B31F9027B04FB0733A3
:1005C00030F9025B31F9028B05FB083330F9024B3D
:1005D00031F9027B04FB073330F9025B31F9028BFE
:1005E00005FB083306EBA3164FF0000330F9024B6E
:1005F00031F9027B04FB073330F9025B31F9028BDE
:1006000005FB083330F9024B31F9027B04FB073359
:1006100030F9025B31F9028B05FB083306EBA316B8
:100620004FF0000330F9024B31F9027B04FB073332
:1006300030F9025B31F9028B05FB083330F9024BCC
:1006400031F9027B04FB073330F9025B31F9028B8D
:1006500005FB083306EBA3163046BDE8F0812DE913
:10066000F0474FF00006089A31F9027B31F9028B0E
:10067000B0F90040B0F9025004FB07F305FB083362
:1006800031F9027BB0F9044031F9028BB0F9065020
:1006900004FB073305FB083331F9027BB0F908404E
:1006A00031F9028BB0F90A5004FB073305FB08331C
:1006B00031F9027BB0F90C4031F9028BB0F90E50E0
:1006C00004FB073305FB083331F9027BB0F9104016
:1006D00031F9028BB0F9125004FB073305FB0833E4
:1006E00052F8044BC3EB6403012EAEBF73459E4624
:1006F000B2460136202EB7DB0A9BC3F800A00B9B45
:10070000C3F800E0BDE8F08781F0004102E000BFDF
:1007100083F0004330B54FEA41044FEA430594EAC1
:10072000050F08BF90EA020F1FBF54EA000C55EAFC
:10073000020C7FEA645C7FEA655C00F0E2804FEACD
:100740005454D4EB5555B8BF6D420CDD2C4480EAAF
:10075000020281EA030382EA000083EA010180EADF
:10076000020281EA0303362D88BF30BD11F0004F2D
:100770004FEA01314FF4801C4CEA113102D0404263
:1007800061EB410113F0004F4FEA03334CEA13339E
:1007900002D0524263EB430394EA050F00F0A780B6
:1007A000A4F10104D5F1200E0DDB02FA0EFC22FAB1
:1007B00005F2801841F1000103FA0EF2801843FAA5
:1007C00005F359410EE0A5F120050EF1200E012A96
:1007D00003FA0EFC28BF4CF0020C43FA05F3C018D4
:1007E00051EBE37101F0004507D54FF0000EDCF14D
:1007F000000C7EEB00006EEB0101B1F5801F1BD3F6
:10080000B1F5001F0CD349085FEA30004FEA3C0CF9
:1008100004F101044FEA445212F5800F80F09A80EF
:10082000BCF1004F08BF5FEA500C50F1000041EBF3
:10083000045141EA050130BD5FEA4C0C404141EBF7
:10084000010111F4801FA4F10104E9D191F0000F1E
:1008500004BF01460020B1FA81F308BF2033A3F1A1
:100860000B03B3F120020CDA0C3208DD02F1140C98
:10087000C2F10C0201FA0CF021FA02F10CE002F1D3
:100880001402D8BFC2F1200C01FA02F120FA0CFCCC
:10089000DCBF41EA0C019040E41AA2BF01EB045115
:1008A000294330BD6FEA04041F3C1CDA0C340EDC13
:1008B00004F11404C4F1200220FA04F001FA02F356
:1008C00040EA030021FA04F345EA030130BDC4F114
:1008D0000C04C4F1200220FA02F001FA04F340EA09
:1008E0000300294630BD21FA04F0294630BD94F0BA
:1008F000000F83F4801306BF81F480110134013DA1
:100900004EE77FEA645C18BF7FEA655C29D094EA11
:10091000050F08BF90EA020F05D054EA000C04BF8F
:100920001946104630BD91EA030F1EBF002100207A
:1009300030BD5FEA545C05D14000494128BF41F019
:10094000004130BD14F580043CBF01F5801130BD7D
:1009500001F0004545F0FE4141F470014FF0000008
:1009600030BD7FEA645C1ABF194610467FEA655CB9
:100970001CBF0B46024650EA013406BF52EA03355B
:1009800091EA030F41F4002130BD00BF90F0000F49
:1009900004BF0021704730B54FF4806404F1320485
:1009A0004FF000054FF0000150E700BF90F0000F3E
:1009B00004BF0021704730B54FF4806404F1320465
:1009C00010F0004548BF40424FF000013EE700BF35
:1009D00042004FEAE2014FEA31014FEA02701FBFC5
:1009E00012F07F4393F07F4F81F06051704792F097
:1009F000000F14BF93F07F4F704730B54FF4607411
:100A000001F0004521F0004120E700BF50EA01025B
:100A100008BF704730B54FF000050AE050EA010208
:100A200008BF704730B511F0004502D5404261EB78
:100A300041014FF4806404F132045FEA915C3FF4B9
:100A4000DCAE4FF003025FEADC0C18BF03325FEA52
:100A5000DC0C18BF033202EBDC02C2F1200300FA07
:100A600003FC20FA02F001FA03FE40EA0E0021FA2C
:100A700002F11444C1E600BF70B54FF0FF0C4CF416
:100A8000E06C1CEA11541DBF1CEA135594EA0C0FCC
:100A900095EA0C0F00F0DEF82C4481EA030621EA07
:100AA0004C5123EA4C5350EA013518BF52EA033542
:100AB00041F4801143F4801338D0A0FB02CE4FF0F4
:100AC0000005E1FB02E506F00042E0FB03E54FF024
:100AD0000006E1FB03569CF0000F18BF4EF0010E1C
:100AE000A4F1FF04B6F5007F64F5407404D25FEA18
:100AF0004E0E6D4146EB060642EAC62141EA5551CB
:100B00004FEAC52040EA5E504FEACE2EB4F1FD0C0C
:100B100088BFBCF5E06F1ED8BEF1004F08BF5FEA8A
:100B2000500E50F1000041EB045170BD06F000463C
:100B300046EA010140EA020081EA0301B4EB5C04E9
:100B4000C2BFD4EB0C0541EA045170BD41F48011E1
:100B50004FF0000E013C00F3AB8014F1360FDEBF06
:100B6000002001F0004170BDC4F10004203C35DAE2
:100B70000C341BDC04F11404C4F1200500FA05F365
:100B800020FA04F001FA05F240EA020001F0004206
:100B900021F0004110EBD37021FA04F642EB06017C
:100BA0005EEA430E08BF20EAD37070BDC4F10C04A6
:100BB000C4F1200500FA04F320FA05F001FA04F26A
:100BC00040EA020001F0004110EBD37041F1000156
:100BD0005EEA430E08BF20EAD37070BDC4F1200561
:100BE00000FA05F24EEA020E20FA04F301FA05F2C9
:100BF00043EA020321FA04F001F0004121FA04F271
:100C000020EA020000EBD3705EEA430E08BF20EA40
:100C1000D37070BD94F0000F0FD101F0004640007A
:100C200041EB010111F4801F08BF013CF7D041EAFC
:100C3000060195F0000F18BF704703F00046520000
:100C400043EB030313F4801F08BF013DF7D043EAD1
:100C50000603704794EA0C0F0CEA135518BF95EA87
:100C60000C0F0CD050EA410618BF52EA4306D1D10E
:100C700081EA030101F000414FF0000070BD50EA2D
:100C8000410606BF1046194652EA430619D094EAB7
:100C90000C0F02D150EA013613D195EA0C0F05D1A1
:100CA00052EA03361CBF104619460AD181EA0301F5
:100CB00001F0004141F0FE4141F470014FF00000AD
:100CC00070BD41F0FE4141F4780170BD70B54FF048
:100CD000FF0C4CF4E06C1CEA11541DBF1CEA1355C8
:100CE00094EA0C0F95EA0C0F00F0A7F8A4EB0504AA
:100CF00081EA030E52EA03354FEA013100F08880A1
:100D00004FEA03334FF0805545EA131343EA126369
:100D10004FEA022245EA111545EA10654FEA00261E
:100D20000EF000419D4208BF964244F1FD0404F5D7
:100D3000407402D25B084FEA3202B61A65EB030533
:100D40005B084FEA32024FF480104FF4002CB6EBF0
:100D5000020E75EB030E22BFB61A754640EA0C0070
:100D60005B084FEA3202B6EB020E75EB030E22BFB0
:100D7000B61A754640EA5C005B084FEA3202B6EBF1
:100D8000020E75EB030E22BFB61A754640EA9C00B0
:100D90005B084FEA3202B6EB020E75EB030E22BF80
:100DA000B61A754640EADC0055EA060E18D04FEA3E
:100DB000051545EA16754FEA06164FEAC30343EADE
:100DC00052734FEAC2025FEA1C1CC0D111F4801FAB
:100DD0000BD141EA00014FF000004FF0004CB6E7A4
:100DE00011F4801F04BF01430020B4F1FD0C88BF43
:100DF000BCF5E06F3FF6AFAEB5EB030C04BFB6EB4E
:100E0000020C5FEA500C50F1000041EB045170BD40
:100E10000EF0004E4EEA113114EB5C04C2BFD4EB6D
:100E20000C0541EA045170BD41F480114FF0000EF1
:100E3000013C90E645EA060E8DE60CEA135594EA6D
:100E40000C0F08BF95EA0C0F3FF43BAF94EA0C0F70
:100E50000AD150EA01347FF434AF95EA0C0F7FF4E5
:100E600025AF104619462CE795EA0C0F06D152EA39
:100E700003353FF4FDAE1046194622E750EA41061D
:100E800018BF52EA43067FF4C5AE50EA41047FF42E
:100E90000DAF52EA43057FF4EBAE12E74FF0FF3C93
:100EA00006E000BF4FF0010C02E000BF4FF0010C64
:100EB0004DF804CD4FEA410C7FEA6C5C4FEA430CDD
:100EC00018BF7FEA6C5C1BD001B050EA410C0CBF2C
:100ED00052EA430C91EA030F02BF90EA020F00208E
:100EE000704710F1000F91EA030F58BF994208BFF5
:100EF00090422CBFD8176FEAE37040F001007047B2
:100F00004FEA410C7FEA6C5C02D150EA013C07D108
:100F10004FEA430C7FEA6C5CD6D152EA033CD3D053
:100F20005DF8040B704700BF8446104662468C464D
:100F30001946634600E000BF01B5FFF7B7FF002880
:100F400048BF10F1000F01BD4DF808EDFFF7F4FFA9
:100F50000CBF012000205DF808FB00BF4DF808ED34
:100F6000FFF7EAFF34BF012000205DF808FB00BF57
:100F70004DF808EDFFF7E0FF94BF012000205DF879
:100F800008FB00BF4DF808EDFFF7CEFF94BF01202E
:100F900000205DF808FB00BF4DF808EDFFF7C4FF27
:100FA00034BF012000205DF808FB00BF4FEA41027A
:100FB00012F5001215D211D56FF47873B3EB6252AB
:100FC00012D94FEAC12343F0004343EA505311F0D2
:100FD000004F23FA02F018BF404270474FF0000064
:100FE000704750EA013005D111F0004008BF6FF0A2
:100FF000004070474FF00000704700BF80F0004095
:1010000002E000BF81F0004142001FBF5FEA4103E0
:1010100092EA030F7FEA226C7FEA236C6AD04FEAE0
:101020001262D2EB1363C1BFD21841404840414025
:10103000B8BF5B42192B88BF704710F0004F40F4D7
:10104000000020F07F4018BF404211F0004F41F4F3
:10105000000121F07F4118BF494292EA030F3FD0BF
:10106000A2F1010241FA03FC10EB0C00C3F12003D2
:1010700001FA03F100F0004302D5494260EB400061
:10108000B0F5000F13D3B0F1807F06D340084FEACC
:10109000310102F10102FE2A51D2B1F1004F40EBC1
:1010A000C25008BF20F0010040EA03007047490029
:1010B00040EB000010F4000FA2F10102EDD1B0FAF4
:1010C00080FCACF1080CB2EB0C0200FA0CF0AABFE9
:1010D00000EBC25052421843BCBFD0401843704787
:1010E00092F0000F81F4000106BF80F4000001328D
:1010F000013BB5E74FEA41037FEA226C18BF7FEA64
:10110000236C21D092EA030F04D092F0000F08BFA5
:101110000846704790EA010F1CBF0020704712F08C
:101120007F4F04D1400028BF40F00040704712F1CB
:1011300000723CBF00F50000704700F0004343F030
:10114000FE4040F4000070477FEA226216BF084666
:101150007FEA23630146420206BF5FEA412390EA29
:10116000010F40F4800070474FF0000304E000BF1F
:1011700010F0004348BF40425FEA000C08BF7047D0
:1011800043F0964301464FF000001CE050EA010294
:1011900008BF70474FF000030AE000BF50EA0102A9
:1011A00008BF704711F0004302D5404261EB410196
:1011B0005FEA010C02BF84460146002043F0B643BB
:1011C00008BFA3F18053A3F50003BCFA8CF2083AE0
:1011D000A3EBC25310DB01FA02FC634400FA02FCE9
:1011E000C2F12002BCF1004F20FA02F243EB0200F0
:1011F00008BF20F00100704702F1200201FA02FC52
:10120000C2F1200250EA4C0021FA02F243EB020044
:1012100008BF20EADC7070474FF0FF0C1CEAD05288
:101220001EBF1CEAD15392EA0C0F93EA0C0F6FD049
:101230001A4480EA010C400218BF5FEA41211ED027
:101240004FF0006343EA501043EA5111A0FB013113
:101250000CF00040B1F5000F3EBF490041EAD371E8
:101260005B0040EA010062F17F02FD2A1DD8B3F164
:10127000004F40EBC25008BF20F00100704790F0D3
:10128000000F0CF0004C08BF49024CEA502040EA25
:1012900051207F3AC2BFD2F1FF0340EAC2507047EB
:1012A00040F400004FF00003013A5DDC12F1190F29
:1012B000DCBF00F000407047C2F10002410021FA9B
:1012C00002F1C2F1200200FA02FC5FEA310040F1B3
:1012D000000053EA4C0308BF20EADC70704792F02C
:1012E000000F00F0004C02BF400010F4000F013A64
:1012F000F9D040EA0C0093F0000F01F0004C02BF5F
:10130000490011F4000F013BF9D041EA0C018FE7CD
:101310000CEAD15392EA0C0F18BF93EA0C0F0AD0D3
:1013200030F0004C18BF31F0004CD8D180EA0100F9
:1013300000F00040704790F0000F17BF90F0004F92
:10134000084691F0000F91F0004F14D092EA0C0F74
:1013500001D142020FD193EA0C0F03D14B0218BF07
:10136000084608D180EA010000F0004040F0FE404D
:1013700040F40000704740F0FE4040F440007047E9
:101380004FF0FF0C1CEAD0521EBF1CEAD15392EA68
:101390000C0F93EA0C0F69D0A2EB030280EA010C58
:1013A00049024FEA402037D04FF0805343EA1111F1
:1013B00043EA10130CF000408B4238BF5B0042F14F
:1013C0007D024FF4000C8B4224BF5B1A40EA0C00F4
:1013D000B3EB510F24BFA3EB510340EA5C00B3EB26
:1013E000910F24BFA3EB910340EA9C00B3EBD10F14
:1013F00024BFA3EBD10340EADC001B0118BF5FEA66
:101400001C1CE0D1FD2A3FF650AF8B4240EBC2508E
:1014100008BF20F0010070470CF0004C4CEA50204F
:101420007F32C2BFD2F1FF0340EAC250704740F49E
:1014300000004FF00003013A37E792F0000F00F090
:10144000004C02BF400010F4000F013AF9D040EA0E
:101450000C0093F0000F01F0004C02BF490011F4A2
:10146000000F013BF9D041EA0C0195E70CEAD1539A
:1014700092EA0C0F08D142027FF47DAF93EA0C0F81
:101480007FF470AF084676E793EA0C0F04D14B0265
:101490003FF44CAF08466EE730F0004C18BF31F017
:1014A000004CCAD130F000427FF45CAF31F0004311
:1014B0007FF43CAF5FE700BF80B400AF154A154B27
:1014C0001B6843F0010313601249124B5A68124B18
:1014D00013404B600F4A0F4B1B6823F0847323F4B7
:1014E000803313600B4A0B4B1B6823F4802313607B
:1014F000084A084B5B6823F4FE035360054B4FF426
:101500001F029A60054B4FF000629A6000BFBD4613
:1015100080BC7047001002400000FFF800ED00E0C2
:1015200080B500AF084A084B1B6843F010031360F6
:10153000032000F01BF9002000F008F803F05CFD28
:101540000023184680BD00BF0020024080B582B055
:1015500000AF786001F052FC0246094BA3FB022366
:101560009B09184600F038F9002279684FF0FF30E7
:1015700000F008F9002318460837BD4680BD00BFBB
:10158000D34D621080B400AF044B1B680133034A93
:10159000136000BFBD4680BC704700BF8C000020B8
:1015A00080B400AF024B1B681846BD4680BC704734
:1015B0008C00002080B584B000AF78600023FB6011
:1015C000FFF7EEFFF86000BFFFF7EAFF0246FB6897
:1015D000D21A7B689A42F7D300BF1037BD4680BD50
:1015E00080B485B000AF78607B6803F00703FB60D0
:1015F0000C4BDB68BB60BA684FF6FF031340BB605F
:10160000FB681A02BB68134343F0BF6343F4003323
:10161000BB60044ABB68D36000BF1437BD4680BCC2
:10162000704700BF00ED00E080B400AF044BDB6802
:1016300003F4E0631B0A1846BD4680BC704700BF38
:1016400000ED00E080B483B000AF0346FB710849B1
:1016500097F907305B09FA7902F01F02012000FABE
:1016600002F241F8232000BF0C37BD4680BC704712
:1016700000E100E080B483B000AF03463960FB7145
:1016800097F90730002B0BDA0D49FB7903F00F03B4
:10169000043B3A68D2B21201D2B20B441A7609E086
:1016A000084997F907303A68D2B21201D2B20B4416
:1016B00083F8002300BF0C37BD4680BC704700BFD5
:1016C00000ED00E000E100E080B489B000AFF86018
:1016D000B9607A60FB6803F00703FB61FB69C3F143
:1016E0000703042B28BF0423BB61FB690433062BCB
:1016F00002D9FB69033B00E000237B610122BB6947
:1017000002FA03F35A1EBB681A407B699A40012112
:101710007B6901FA03F3591E7B680B40134318469B
:101720002437BD4680BC704780B582B000AF78607A
:101730007B68013BB3F1807F01D301230FE00A4AAC
:101740007B68013B53600F214FF0FF30FFF792FFA2
:10175000054B00229A60044B07221A6000231846AA
:101760000837BD4680BD00BF10E000E080B582B004
:1017700000AF78607868FFF733FF00BF0837BD46D9
:1017800080BD00BF80B586B000AF0346B9607A6007
:10179000FB7300237B61FFF747FF78617A68B968C4
:1017A0007869FFF791FF024697F90F301146184606
:1017B000FFF760FF00BF1837BD4680BD80B582B01F
:1017C00000AF0346FB7197F907301846FFF73AFF61
:1017D00000BF0837BD4680BD80B582B000AF7860DD
:1017E0007868FFF7A1FF034618460837BD4680BD5D
:1017F00080B483B000AF78607B68042B06D1094ABF
:10180000084B1B6843F00403136005E0054A054BD1
:101810001B6823F00403136000BF0C37BD4680BC77
:10182000704700BF10E000E080B500AF00F002F8A4
:1018300000BF80BD80B400AF00BFBD4680BC704714
:1018400080B48BB000AF786039600023FB61002367
:10185000BB6100237B6100233B6200233B610023CB
:101860007B6227E101227B6A02FA03F3FB613B689A
:101870001A68FB691340BB61BA69FB699A4240F080
:1018800016813B685B68122B34D0122B0DD8022BCB
:101890002BD0022B04D8002B31D0012B1CD048E0D8
:1018A000032B43D0112B1BD043E0874A934226D011
:1018B000854A934206D8854A934220D0844A93426F
:1018C0001DD036E0834A934219D0834A934216D002
:1018D000824A934213D02CE03B68DB683B6228E0ED
:1018E0003B68DB6804333B6223E03B68DB6808331A
:1018F0003B621EE03B68DB680C333B6219E03B68EF
:101900009B68002B02D104233B6212E03B689B687A
:10191000012B05D108233B627B68FA691A6108E054
:1019200008233B627B68FA695A6102E000233B624C
:1019300000BFBB69FF2B01D87B6801E07B680433E3
:10194000FB60BB69FF2B02D87B6A9B0002E07B6ACD
:10195000083B9B003B61FB681A680F213B6901FA59
:1019600003F3DB431A40396A3B6901FA03F31A4374
:10197000FB681A603B685B6803F08053002B00F043
:101980009680574A564B9B6943F001039361544B31
:101990009B6903F00103BB60BB68524A7B6A9B08EA
:1019A000023352F823307B617B6A03F003039B0010
:1019B0000F2202FA03F3DB437A6913407B617B68F1
:1019C000494A934213D07B68484A93420DD07B68C2
:1019D000474A934207D07B68464A934201D103238A
:1019E00006E0042304E0022302E0012300E00023D8
:1019F0007A6A02F00302920093407A6913437B6192
:101A000038497B6A9B0802337A6941F823203B6896
:101A10005B6803F48033002B06D03749364B1A68D5
:101A2000BB6913430B6006E03349334B1A68BB694B
:101A3000DB4313400B603B685B6803F40033002B0F
:101A400006D02D492C4B5A68BB6913434B6006E006
:101A50002949294B5A68BB69DB4313404B603B68FB
:101A60005B6803F48013002B06D02349224B9A684D
:101A7000BB6913438B6006E01F491F4B9A68BB6923
:101A8000DB4313408B603B685B6803F40013002B5F
:101A900006D01949184BDA68BB691343CB6006E0DE
:101AA0001549154BDA68BB69DB431340CB607B6A91
:101AB00001337B627B6A0F2B7FF6D4AE00BF2C37DD
:101AC000BD4680BC704700BF00002110000011100F
:101AD000000012100000311000003210000022102F
:101AE000001002400000014000080140000C0140CD
:101AF00000100140001401400004014080B483B094
:101B000000AF78600B467B8013467B707B78002BA0
:101B100003D07A887B681A6103E07B881A047B68AB
:101B20001A6100BF0C37BD4680BC704780B483B0DB
:101B300000AF78600B467B807B68DA687B885A4010
:101B40007B68DA6000BF0C37BD4680BC704700BFC1
:101B500090B5E5B000AF3B1D18600023C7F88C318D
:101B60003B1D1B681B6803F00103002B00F075810F
:101B7000B84B5B6803F00C03042B0BD0B54B5B68D0
:101B800003F00C03082B5FD1B24B5B6803F4803386
:101B9000002B59D04FF40033C7F8CC30D7F8CC30F5
:101BA00093FAA3F3C7F8C830D7F8C830B3FA83F371
:101BB0005BB243F020035BB2DBB25B09DBB2012B0B
:101BC00002D1A44B1B681BE04FF40033C7F87031FF
:101BD000D7F8703193FAA3F3C7F8C430D7F8C430FC
:101BE000B3FA83F35BB243F020035BB2DBB25B0971
:101BF000DBB2022B02D1974B1B6A01E0954B5B6A6B
:101C00004FF40032C7F86C21D7F86C2192FAA2F297
:101C1000C7F8C020D7F8C020B2FA82F252B242F020
:101C2000200252B2D2B202F01F02D34003F00103ED
:101C3000002B00F011813B1D1B685B68002B40F0FE
:101C40000B81012300F09DBE3B1D1B685B68B3F553
:101C5000803F06D17F4A7F4B1B6843F4803313607B
:101C600030E03B1D1B685B68002B0CD1794A794B37
:101C70001B6823F480331360764A764B1B6823F489
:101C8000802313601EE03B1D1B685B68B3F5A02F2B
:101C90000CD1704A6F4B1B6843F4802313606D4A6C
:101CA0006C4B1B6843F4803313600BE0694A694B4B
:101CB0001B6823F480331360664A664B1B6823F469
:101CC000802313603B1D1B685B68002B60D0FFF70F
:101CD00067FCC7F88C010AE0FFF762FC0246D7F800
:101CE0008C31D31A642B02D9032300F04ABE4FF47F
:101CF0000033C7F86831D7F8683193FAA3F3C7F80F
:101D0000BC30D7F8BC30B3FA83F35BB243F02003A6
:101D10005BB2DBB25B09DBB2012B02D14D4B1B681E
:101D20001BE04FF40033C7F88831D7F8883193FAB5
:101D3000A3F3C7F8B830D7F8B830B3FA83F35BB27F
:101D400043F020035BB2DBB25B09DBB2022B02D1B2
:101D5000404B1B6A01E03F4B5B6A4FF40032C7F80F
:101D60008421D7F8842192FAA2F2C7F8B420D7F8D8
:101D7000B420B2FA82F252B242F0200252B2D2B28F
:101D800002F01F02D34003F00103002BA4D064E053
:101D9000FFF706FCC7F88C010AE0FFF701FC0246DA
:101DA000D7F88C31D31A642B02D9032300F0E9BD94
:101DB0004FF40033C7F88031D7F8803193FAA3F39A
:101DC000C7F8B030D7F8B030B3FA83F35BB243F062
:101DD00020035BB2DBB25B09DBB2012B02D11D4BEE
:101DE0001B681BE04FF40033C7F87C31D7F87C3117
:101DF00093FAA3F3C7F8AC30D7F8AC30B3FA83F357
:101E00005BB243F020035BB2DBB25B09DBB2022BB7
:101E100002D1104B1B6A01E00E4B5B6A4FF400329B
:101E2000C7F87821D7F8782192FAA2F2C7F8A8204B
:101E3000D7F8A820B2FA82F252B242F0200252B28F
:101E4000D2B202F01F02D34003F00103002BA4D151
:101E500003E000BF0010024000BF3B1D1B681B6871
:101E600003F00203002B00F09881BC4B5B6803F089
:101E70000C03002B0BD0B94B5B6803F00C03082B51
:101E800074D1B64B5B6803F48033002B6ED1022310
:101E9000C7F87431D7F8743193FAA3F3C7F8A430B4
:101EA000D7F8A430B3FA83F35BB243F020035BB2FC
:101EB000DBB25B09DBB2012B02D1A84B1B681AE035
:101EC0000223C7F84031D7F8403193FAA3F3C7F89B
:101ED000A030D7F8A030B3FA83F35BB243F020030D
:101EE0005BB2DBB25B09DBB2022B02D19B4B1B6AFC
:101EF00001E09A4B5B6A0222C7F83C21D7F83C21EB
:101F000092FAA2F2C7F89C20D7F89C20B2FA82F28B
:101F100052B242F0200252B2D2B202F01F02D340BB
:101F200003F00103002B07D03B1D1B681B69012B2D
:101F300002D0012300F025BD8848884B1B6823F0A0
:101F4000F8023B1D1B685969F823C7F83831D7F8E8
:101F5000383193FAA3F3C7F89830D7F89830B3FA2A
:101F600083F301FA03F31343036016E13B1D1B687F
:101F70001B69002B00F094800123C7F83431D7F897
:101F8000343193FAA3F3C7F89430D7F89430B3FA06
:101F900083F39B0003F1844303F584031A46012372
:101FA0001360FFF7FDFAC7F88C010AE0FFF7F8FAB3
:101FB0000246D7F88C31D31A022B02D9032300F042
:101FC000E0BC0223C7F86431D7F8643193FAA3F276
:101FD00007F190031A6007F190031B68B3FA83F3CB
:101FE0005BB243F020035BB2DBB25B09DBB2012BD7
:101FF00002D15A4B1B681CE00223C7F86031D7F8A6
:10200000603193FAA3F207F18C031A6007F18C0395
:102010001B68B3FA83F35BB243F020035BB2DBB21D
:102020005B09DBB2022B02D14C4B1B6A01E04B4B2C
:102030005B6A0222C7F85C21D7F85C2192FAA2F110
:1020400007F18802116007F188021268B2FA82F281
:1020500052B242F0200252B2D2B202F01F02D3407A
:1020600003F00103002BA1D03C4C3C4B1B6823F038
:10207000F8023B1D1B685969F823C7F85831D7F897
:10208000583193FAA3F007F18403186007F1840331
:102090001B68B3FA83F301FA03F3134323607CE074
:1020A0000123C7F85431D7F8543193FAA3F207F15A
:1020B00080031A6007F180031B68B3FA83F39B0067
:1020C00003F1844303F584031A4600231360FFF7EA
:1020D00067FAC7F88C010AE0FFF762FA0246D7F800
:1020E0008C31D31A022B02D9032300F04ABC0223FD
:1020F000C7F85031D7F8503193FAA3F207F17C03B7
:102100001A6007F17C031B68B3FA83F35BB243F0F8
:1021100020035BB2DBB25B09DBB2012B02D10F4BB8
:102120001B681FE00223C7F84C31D7F84C3193FAF3
:10213000A3F207F178031A6007F178031B68B3FA7A
:1021400083F35BB243F020035BB2DBB25B09DBB22B
:10215000022B05D1014B1B6A04E000BF00100240B6
:10216000B74B5B6A0222C7F84821D7F8482192FA98
:10217000A2F107F17402116007F174021268B2FA59
:1021800082F252B242F0200252B2D2B202F01F02E8
:10219000D34003F00103002B9ED13B1D1B681B683D
:1021A00003F00803002B00F0F9803B1D1B689B69BE
:1021B000002B7BD00123C7F84431D7F8443193FA80
:1021C000A3F207F170031A6007F170031B68B3FAFA
:1021D00083F39B001A469B4B13441A46012313605A
:1021E000FFF7DEF9C7F88C0109E0FFF7D9F90246DD
:1021F000D7F88C31D31A022B01D90323C1E3022370
:10220000C7F83031D7F8303193FAA3F207F16C03F5
:102210001A6007F16C031B68B3FA83F35BB243F0F7
:1022200060035BB2DBB25B09DBB2012B02D1844BF2
:102230001B681CE00223C7F82C31D7F82C3193FA25
:10224000A3F207F168031A6007F168031B68B3FA89
:1022500083F35BB243F060035BB2DBB25B09DBB2DA
:10226000022B02D1764B1B6A01E0754B5B6A02229E
:10227000C7F82821D7F8282192FAA2F107F16402C1
:10228000116007F164021268B2FA82F252B242F0AF
:10229000600252B2D2B202F01F02D34003F0010337
:1022A000002BA2D00120FFF785F977E00123C7F8C2
:1022B0002431D7F8243193FAA3F207F160031A60AE
:1022C00007F160031B68B3FA83F39B001A465D4B6A
:1022D00013441A4600231360FFF762F9C7F88C0114
:1022E00009E0FFF75DF90246D7F88C31D31A022BCB
:1022F00001D9032345E30223C7F82031D7F8203161
:1023000093FAA3F207F15C031A6007F15C031B6800
:10231000B3FA83F35BB243F060035BB2DBB25B09F9
:10232000DBB2012B02D1464B1B681CE00223C7F82D
:102330001C31D7F81C3193FAA3F207F158031A6045
:1023400007F158031B68B3FA83F35BB243F06003F1
:102350005BB2DBB25B09DBB2022B02D1384B1B6AEA
:1023600001E0374B5B6A0222C7F81821D7F8182121
:1023700092FAA2F107F15402116007F154021268B7
:10238000B2FA82F252B242F0600252B2D2B202F01B
:102390001F02D34003F00103002BA2D13B1D1B6899
:1023A0001B6803F00403002B00F03C81244A244BFB
:1023B000DB6943F08053D361214BDB6903F080522A
:1023C00007F108031A6007F108031B681E4A1E4B39
:1023D0001B6843F480731360FFF7E2F8C7F88C01C1
:1023E00009E0FFF7DDF80246D7F88C31D31A642BE9
:1023F00001D90323C5E2144B1B6803F48073002B3F
:10240000EFD03B1D1B68DB68012B06D10C4A0C4B3F
:102410001B6A43F00103136236E03B1D1B68DB6857
:10242000002B13D1064A064B1B6A23F001031362EB
:10243000034A034B1B6A23F00403136224E000BF2A
:102440000010024080044242007000403B1D1B68A7
:10245000DB68052B0CD1AC4AAB4B1B6A43F0040381
:102460001362A94AA84B1B6A43F0010313620BE0F5
:10247000A54AA54B1B6A23F001031362A24AA24B93
:102480001B6A23F0040313623B1D1B68DB68002BEF
:1024900064D0FFF785F8C7F88C010BE0FFF780F8F0
:1024A0000246D7F88C31D31A41F28832934201D9CF
:1024B000032366E20223C7F81431D7F8143193FAE4
:1024C000A3F207F150031A6007F150031B68B3FA37
:1024D00083F35BB243F040035BB2DBB25B09DBB278
:1024E000012B02D1884B1B681CE00223C7F8103176
:1024F000D7F8103193FAA3F207F14C031A6007F1F1
:102500004C031B68B3FA83F35BB243F040035BB246
:10251000DBB25B09DBB2022B02D17B4B1B6A01E011
:10252000794B5B6A0222C7F80C21D7F80C2192FA8A
:10253000A2F107F14802116007F148021268B2FAED
:1025400082F252B242F0400252B2D2B202F01F0204
:10255000D34003F00103002BA0D063E0FFF720F885
:10256000C7F88C010BE0FFF71BF80246D7F88C3157
:10257000D31A41F28832934201D9032301E20223A4
:10258000C7F80831D7F8083193FAA3F207F14403EA
:102590001A6007F144031B68B3FA83F35BB243F09C
:1025A00040035BB2DBB25B09DBB2012B02D1564BBD
:1025B0001B681CE00223C7F80431D7F8043193FAF2
:1025C000A3F207F140031A6007F140031B68B3FA56
:1025D00083F35BB243F040035BB2DBB25B09DBB277
:1025E000022B02D1484B1B6A01E0474B5B6A022277
:1025F000C7F80021D7F8002192FAA2F107F13C02B6
:10260000116007F13C021268B2FA82F252B242F053
:10261000400252B2D2B202F01F02D34003F00103D3
:10262000002BA0D13B1D1B68DB69002B00F0A881AB
:10263000354B5B6803F00C03082B00F09F813B1DBA
:102640001B68DB69022B40F01B814FF08073C7F8D9
:10265000FC30D7F8FC3093FAA3F207F138031A6084
:1026600007F138031B68B3FA83F39B0003F184433B
:1026700003F584031A4600231360FEF791FFC7F8A1
:102680008C0109E0FEF78CFF0246D7F88C31D31A93
:10269000022B01D9032374E14FF00073C7F8F8301F
:1026A000D7F8F83093FAA3F207F134031A6007F170
:1026B00034031B68B3FA83F35BB243F020035BB2CD
:1026C000DBB25B09DBB2012B02D10F4B1B681FE0B1
:1026D0004FF00073C7F8F430D7F8F43093FAA3F250
:1026E00007F130031A6007F130031B68B3FA83F374
:1026F0005BB243F020035BB2DBB25B09DBB2022BBF
:1027000004D1014B1B6A03E0001002409F4B5B6A3F
:102710004FF00072C7F8F020D7F8F02092FAA2F13B
:1027200007F12C02116007F12C021268B2FA82F252
:1027300052B242F0200252B2D2B202F01F02D34093
:1027400003F00103002B9DD13B1D1B681B6AB3F5F1
:10275000803F09D18D498D4B5B6823F400323B1DCE
:102760001B689B6813434B608848884B5B6823F465
:1027700074123B1D1B68196A3B1D1B685B6A0B4387
:10278000134343604FF08073C7F8EC30D7F8EC3058
:1027900093FAA3F207F128031A6007F128031B68D4
:1027A000B3FA83F39B0003F1844303F584031A46D1
:1027B00001231360FEF7F4FEC7F88C0109E0FEF771
:1027C000EFFE0246D7F88C31D31A022B01D903232E
:1027D000D7E04FF00073C7F8E830D7F8E83093FA45
:1027E000A3F207F124031A6007F124031B68B3FA6C
:1027F00083F35BB243F020035BB2DBB25B09DBB275
:10280000012B02D1614B1B681DE04FF00073C7F82C
:10281000E430D7F8E43093FAA3F207F120031A600A
:1028200007F120031B68B3FA83F35BB243F0200384
:102830005BB2DBB25B09DBB2022B02D1534B1B6AEA
:1028400001E0524B5B6A4FF00072C7F8E020D7F806
:10285000E02092FAA2F107F11C02116007F11C02BC
:102860001268B2FA82F252B242F0200252B2D2B2EE
:1028700002F01F02D34003F00103002B9FD07FE042
:102880004FF08073C7F8DC30D7F8DC3093FAA3F24E
:1028900007F118031A6007F118031B68B3FA83F3F2
:1028A0009B0003F1844303F584031A46002313605D
:1028B000FEF776FEC7F88C0109E0FEF771FE0246CE
:1028C000D7F88C31D31A022B01D9032359E04FF0EA
:1028D0000073C7F8D830D7F8D83093FAA3F207F1CD
:1028E00014031A6007F114031B68B3FA83F35BB295
:1028F00043F020035BB2DBB25B09DBB2012B02D1F8
:10290000224B1B681DE04FF00073C7F8D430D7F896
:10291000D43093FAA3F207F110031A6007F1100301
:102920001B68B3FA83F35BB243F020035BB2DBB204
:102930005B09DBB2022B02D1144B1B6A01E0134B83
:102940005B6A4FF00072C7F8D020D7F8D02092FA17
:10295000A2F107F10C02116007F10C021268B2FA41
:1029600082F252B242F0200252B2D2B202F01F0200
:10297000D34003F00103002B9FD101E0012300E0CD
:102980000023184607F5CA77BD4690BD00100240E7
:1029900080B598B000AF786039600023FB65A54B27
:1029A0001B6803F007023B689A4210D2A149A14B71
:1029B0001B6823F007023B6813430B609D4B1B68A9
:1029C00003F007023B689A4201D001238FE17B6844
:1029D0001B6803F00203002B08D09749964B5B68F5
:1029E00023F0F0027B689B6813434B607B681B6895
:1029F00003F00103002B00F027817B685B68012B4B
:102A000046D14FF400337B637B6B93FAA3F33B63B4
:102A10003B6BB3FA83F35BB243F020035BB2DBB2F0
:102A20005B09DBB2012B02D1834B1B6817E04FF42B
:102A30000033BB65BB6D93FAA3F3FB62FB6AB3FA89
:102A400083F35BB243F020035BB2DBB25B09DBB222
:102A5000022B02D1784B1B6A01E0774B5B6A4FF483
:102A600000327A657A6D92FAA2F2BA62BA6AB2FA62
:102A700082F252B242F0200252B2D2B202F01F02EF
:102A8000D34003F00103002B40F08F8001232EE19F
:102A90007B685B68022B45D14FF000733B653B6D53
:102AA00093FAA3F37B627B6AB3FA83F35BB243F0DE
:102AB00020035BB2DBB25B09DBB2012B02D15E4BC0
:102AC0001B6817E04FF00073FB64FB6C93FAA3F3F1
:102AD0003B623B6AB3FA83F35BB243F020035BB221
:102AE000DBB25B09DBB2022B02D1534B1B6A01E064
:102AF000514B5B6A4FF00072BA64BA6C92FAA2F260
:102B0000FA61FA69B2FA82F252B242F0200252B28B
:102B1000D2B202F01F02D34003F00103002B44D1D4
:102B20000123E4E002237B647B6C93FAA3F3BB6193
:102B3000BB69B3FA83F35BB243F020035BB2DBB251
:102B40005B09DBB2012B02D13B4B1B6816E0022371
:102B50003B643B6C93FAA3F37B617B69B3FA83F329
:102B60005BB243F020035BB2DBB25B09DBB2022B4A
:102B700002D1314B1B6A01E02F4B5B6A0222FA63E0
:102B8000FA6B92FAA2F23A613A69B2FA82F252B25E
:102B900042F0200252B2D2B202F01F02D34003F040
:102BA0000103002B01D10123A1E02349224B5B68E3
:102BB00023F003027B685B6813434B60FEF7F0FC75
:102BC000F8657B685B68012B12D10AE0FEF7E8FC30
:102BD0000246FB6DD31A41F28832934201D9032396
:102BE00085E0154B5B6803F00C03042BEED12BE062
:102BF0007B685B68022B21D10AE0FEF7D1FC02461C
:102C0000FB6DD31A41F28832934201D903236EE05F
:102C1000094B5B6803F00C03082BEED114E0FEF7C0
:102C2000BFFC0246FB6DD31A41F28832934205D9AC
:102C300003235CE000200240001002402E4B5B6842
:102C400003F00C03002BEAD12C4B1B6803F00702A6
:102C50003B689A4210D92949284B1B6823F0070288
:102C60003B6813430B60254B1B6803F007023B686E
:102C70009A4201D001233AE07B681B6803F0040309
:102C8000002B08D01C491C4B5B6823F4E0627B6876
:102C9000DB6813434B607B681B6803F00803002B61
:102CA00009D01549144B5B6823F460527B681B699B
:102CB000DB0013434B6000F027F801460E4B5B68C6
:102CC00003F0F002F023BB63BB6B93FAA3F3FB604A
:102CD000FB68B3FA83F322FA03F3094AD35C21FABF
:102CE00003F3084A13600020FEF730FC0023184667
:102CF0006037BD4680BD00BF00100240002002408A
:102D0000C80801080000002090B48EB000AF364B18
:102D10003C1D186859689A68DB680FC4334A3B4603
:102D200012881A800023FB620023BB6200237B63AE
:102D300000237B6200233B632D4B5B68FB62FB6AD5
:102D400003F00C03042B02D0082B03D043E0294BE3
:102D50003B6343E0FB6A03F470124FF47013FB61B2
:102D6000FB6993FAA3F3BB61BB69B3FA83F322FA5D
:102D700003F307F13802134413F8343C7B62FB6A17
:102D800003F48033002B1ED0194B5B6803F4003230
:102D90004FF400333B623B6A93FAA3F37B617B6998
:102DA000B3FA83F322FA03F307F13802134413F85A
:102DB000383CBB620F4ABB6AB2FBF3F37A6A02FB90
:102DC00003F37B6304E07B6A0B4A02FB03F37B6340
:102DD0007B6B3B6302E0074B3B6300BF3B6B1846DA
:102DE0003837BD4690BC70473005010840050108E2
:102DF0000010024000127A0000093D0080B400AFCC
:102E0000024B1B681846BD4680BC7047000000207E
:102E100080B582B000AFFFF7F1FF01460B4B5B6856
:102E200003F4E0624FF4E0637B607B6893FAA3F302
:102E30003B603B68B3FA83F322FA03F3044AD35CA2
:102E400021FA03F318460837BD4680BD0010024042
:102E5000D808010880B582B000AF78607B68002B8D
:102E600001D101231DE07B6893F83930DBB2002BE0
:102E700006D17B68002283F83820786802F050F988
:102E80007B68022283F839207B681A687B680433E8
:102E90001946104600F078FA7B68012283F8392041
:102EA000002318460837BD4680BD00BF80B483B0FC
:102EB00000AF78607B681B687A681268D26842F05D
:102EC0000102DA607B681B687A681268126842F057
:102ED00001021A60002318460C37BD4680BC7047BB
:102EE00080B582B000AF78607B68002B01D10123F0
:102EF0001DE07B6893F83930DBB2002B06D17B688C
:102F0000002283F83820786802F0EEF87B6802220D
:102F100083F839207B681A687B68043319461046A9
:102F200000F032FA7B68012283F83920002318462A
:102F30000837BD4680BD00BF80B582B000AF786065
:102F400039607B681B6801223968184600F01AFC5A
:102F50007B681B680B4A934207D17B681B687A68C1
:102F60001268526C42F400425A647B681B687A68AB
:102F70001268126842F001021A60002318460837EE
:102F8000BD4680BD002C014080B582B000AF7860A6
:102F90007B681B681B6903F00203002B22D07B684F
:102FA0001B68DB6803F00203002B1BD07B681B68E7
:102FB0006FF002021A617B6801221A767B681B6837
:102FC0009B6903F00303002B03D0786800F0BEF97F
:102FD00005E0786800F0B0F9786800F0C1F97B6826
:102FE00000221A767B681B681B6903F00403002B20
:102FF00022D07B681B68DB6803F00403002B1BD026
:103000007B681B686FF004021A617B6802221A76E3
:103010007B681B689B6903F44073002B03D07868BE
:1030200000F094F905E0786800F086F9786800F01F
:1030300097F97B6800221A767B681B681B6903F08E
:103040000803002B22D07B681B68DB6803F00803B1
:10305000002B1BD07B681B686FF008021A617B682D
:1030600004221A767B681B68DB6903F00303002BDC
:1030700003D0786800F06AF905E0786800F05CF940
:10308000786800F06DF97B6800221A767B681B680F
:103090001B6903F01003002B22D07B681B68DB68E0
:1030A00003F01003002B1BD07B681B686FF010022D
:1030B0001A617B6808221A767B681B68DB6903F457
:1030C0004073002B03D0786800F040F905E0786881
:1030D00000F032F9786800F043F97B6800221A7634
:1030E0007B681B681B6903F00103002B0ED07B6813
:1030F0001B68DB6803F00103002B07D07B681B68AB
:103100006FF001021A61786800F00CF97B681B68A7
:103110001B6903F08003002B0ED07B681B68DB6803
:1031200003F08003002B07D07B681B686FF08002E0
:103130001A61786800F096FB7B681B681B6903F0D6
:103140004003002B0ED07B681B68DB6803F0400354
:10315000002B07D07B681B686FF040021A6178680B
:1031600000F008F97B681B681B6903F02003002B43
:103170000ED07B681B68DB6803F02003002B07D0B0
:103180007B681B686FF020021A61786800F060FBB2
:1031900000BF0837BD4680BD80B584B000AFF86081
:1031A000B9607A60FB6893F83830012B01D10223B3
:1031B000B4E0FB68012283F83820FB68022283F820
:1031C00039207B680C2B00F29F8001A252F823F07B
:1031D00005320008093300080933000809330008E4
:1031E0004532000809330008093300080933000894
:1031F0008732000809330008093300080933000842
:10320000C7320008FB681B68B968184600F01AF955
:10321000FB681B68FA681268926942F008029A61BA
:10322000FB681B68FA681268926922F004029A61CE
:10323000FB681B68FA6812689169BA6812690A43E8
:103240009A6162E0FB681B68B968184600F066F98D
:10325000FB681B68FA681268926942F400629A611E
:10326000FB681B68FA681268926922F480629A61AE
:10327000FB681B68FA6812689169BA6812691202E1
:103280000A439A6141E0FB681B68B968184600F080
:10329000B5F9FB681B68FA681268D26942F0080247
:1032A000DA61FB681B68FA681268D26922F00402CE
:1032B000DA61FB681B68FA681268D169BA6812693A
:1032C0000A43DA6121E0FB681B68B968184600F020
:1032D00005FAFB681B68FA681268D26942F400625A
:1032E000DA61FB681B68FA681268D26922F48062AE
:1032F000DA61FB681B68FA681268D169BA681269FA
:1033000012020A43DA6100E000BFFB68012283F881
:103310003920FB68002283F8382000231846103734
:10332000BD4680BD80B483B000AF786000BF0C376D
:10333000BD4680BC704700BF80B483B000AF7860EA
:1033400000BF0C37BD4680BC704700BF80B483B05F
:1033500000AF786000BF0C37BD4680BC704700BF2F
:1033600080B483B000AF786000BF0C37BD4680BC2E
:10337000704700BF80B483B000AF786000BF0C37E7
:10338000BD4680BC704700BF80B485B000AF786098
:1033900039600023FB607B681B68FB607B68264A02
:1033A00093420BD07B68B3F1804F07D07B68234AF0
:1033B000934203D07B68224A934208D1FB6823F0F2
:1033C0007003FB603B685B68FA681343FB607B68D3
:1033D000194A93420BD07B68B3F1804F07D07B68CA
:1033E000164A934203D07B68154A934208D1FB6882
:1033F00023F44073FB603B68DB68FA681343FB60AF
:103400007B68FA681A603B689A687B68DA623B6896
:103410001A687B689A627B68074A934203D13B68CB
:103420001A697B681A637B6801225A6100BF1437EE
:10343000BD4680BC704700BF002C01400004004026
:103440000008004080B487B000AF78603960002386
:10345000FB6000237B6100233B617B681B6A23F0D8
:1034600001027B681A627B681B6A7B617B685B6810
:103470003B617B689B69FB60FB6823F07003FB602A
:10348000FB6823F00303FB603B681B68FA68134387
:10349000FB607B6923F002037B613B689B687A6970
:1034A00013437B617B681C4A93420CD17B6923F0F8
:1034B00008037B613B68DB687A6913437B617B6946
:1034C00023F004037B617B68134A934211D13B696B
:1034D00023F480733B613B6923F400733B613B68D9
:1034E0005B693A6913433B613B689B693A691343E3
:1034F0003B617B683A695A607B68FA689A613B680D
:103500005A687B685A637B687A691A6200BF1C3705
:10351000BD4680BC704700BF002C014080B487B01E
:1035200000AF786039600023FB6000237B610023DB
:103530003B617B681B6A23F010027B681A627B6820
:103540001B6A7B617B685B683B617B689B69FB6096
:10355000FB6823F4E043FB60FB6823F44073FB60EB
:103560003B681B681B02FA681343FB607B6923F00E
:1035700020037B613B689B681B017A6913437B6175
:103580007B681D4A93420DD17B6923F080037B61E8
:103590003B68DB681B017A6913437B617B6923F01D
:1035A00040037B617B68144A934213D13B6923F447
:1035B00080633B613B6923F400633B613B685B696B
:1035C0009B003A6913433B613B689B699B003A69E6
:1035D00013433B617B683A695A607B68FA689A6179
:1035E0003B685A687B689A637B687A691A6200BF95
:1035F0001C37BD4680BC7047002C014080B487B0AA
:1036000000AF786039600023FB6000237B610023FA
:103610003B617B681B6A23F480727B681A627B685B
:103620001B6A7B617B685B683B617B68DB69FB6075
:10363000FB6823F07003FB60FB6823F00303FB606F
:103640003B681B68FA681343FB607B6923F40073D3
:103650007B613B689B681B027A6913437B617B68D3
:103660001D4A93420DD17B6923F400637B613B6863
:10367000DB681B027A6913437B617B6923F48063F7
:103680007B617B68144A934213D13B6923F48053D6
:103690003B613B6923F400533B613B685B691B0161
:1036A0003A6913433B613B689B691B013A691343C9
:1036B0003B617B683A695A607B68FA68DA613B680B
:1036C0005A687B68DA637B687A691A6200BF1C37C4
:1036D000BD4680BC704700BF002C014080B487B05D
:1036E00000AF7860396000233B610023FB6000235A
:1036F0007B617B681B6A23F480527B681A627B685B
:103700001B6AFB607B685B687B617B68DB693B6194
:103710003B6923F4E0433B613B6923F440733B6125
:103720003B681B681B023A6913433B61FB6823F447
:103730000053FB603B689B681B03FA681343FB6004
:103740007B680F4A934209D17B6923F480437B61F4
:103750003B685B699B017A6913437B617B687A698B
:103760005A607B683A69DA613B685A687B681A6418
:103770007B68FA681A6200BF1C37BD4680BC704780
:10378000002C014080B487B000AFF860B9607A6067
:1037900000237B610122BB6802FA03F37B61FB68B3
:1037A0001A6A7B69DB431A40FB681A62FB681A6A73
:1037B0007968BB6801FA03F31A43FB681A6200BF19
:1037C0001C37BD4680BC704780B483B000AF7860C2
:1037D00039607B6893F83830012B01D1022332E045
:1037E0007B68012283F838207B68022283F8392025
:1037F0007B681B687A681268526822F070025A600F
:103800007B681B687A68126851683A6812680A43D4
:103810005A607B681B687A681268926822F080029E
:103820009A607B681B687A68126891683A68526887
:103830000A439A607B68012283F839207B68002262
:1038400083F83820002318460C37BD4680BC7047EB
:1038500080B483B000AF786000BF0C37BD4680BC39
:10386000704700BF80B483B000AF786000BF0C37F2
:10387000BD4680BC704700BF90B585B000AF786092
:103880000023FB600023BB607B68002B01D1012378
:103890006EE07B6893F83530DBB2002B06D17B6895
:1038A000002283F83420786801F0F2FB7B68242240
:1038B00083F835207B681B687A681268126822F0EA
:1038C00001021A60FFF7A4FAB860BB682A4AA2FB9B
:1038D00003239B0CFB607B681B68FA685A607B685B
:1038E0001A687B685B6825498B4202D8FB68013304
:1038F00009E0FB684FF4967101FB03F32049A1FB3B
:1039000003139B09013313627B681C68B9687868EC
:1039100000F0FEFB0346E3617B681B687A68D169AF
:103920007A68126A0A431A607B681B687A681169B0
:103930007A68D2680A439A607B681B687A68516922
:103940007A6892690A43DA607B681B687A68126851
:10395000126842F001021A607B6800229A637B6859
:10396000202283F835207B68002283F8362000234C
:1039700018461437BD4690BD83DE1B43A086010068
:10398000D34D621080B586B002AFF860084611468C
:103990001A4603467B810B463B811346FB80FB683E
:1039A00093F83530DBB2202B40F0B380BB69002B9D
:1039B00002D0BB8B002B01D10123ABE042F210738C
:1039C00001225649F86800F0F1FB0346002B01D0B4
:1039D00002239FE0FB6893F83430012B01D10223CE
:1039E00098E0FB68012283F83420FB681B68FA68C2
:1039F0001268126822F400621A60FB68212283F8C0
:103A00003520FB68402283F83620FB6800229A6349
:103A1000F8883A8979893B6A00930346F86800F090
:103A200015FA0346002B44D0FB689B6B042B05D191
:103A3000FB68002283F8342001236BE0FB6800223E
:103A400083F83420032365E0396AF86800F0A6FCA7
:103A50000346002B0FD0FB689B6B042B09D1FB683E
:103A60001B68FA681268126842F400721A60012337
:103A700050E003234EE0FB681A68BB69591CB9612A
:103A80001B781361BB8B013BBB83FB681B685B69C5
:103A900003F00403002B0CD0BB8B002B09D0FB6878
:103AA0001A68BB69591CB9611B781361BB8B013B58
:103AB000BB83BB8B002BC7D1396AF86800F06EFC62
:103AC0000346002B0FD0FB689B6B042B09D1FB68CE
:103AD0001B68FA681268126842F400721A600123C7
:103AE00018E0032316E0FB681B68FA681268126886
:103AF00042F400721A60FB68202283F83520FB68CC
:103B0000002283F83620FB68002283F8342000234B
:103B100000E0022318461037BD4680BD02001000A9
:103B200080B58AB002AFF860084611461A460346CF
:103B30007B810B463B811346FB80FB6893F8353055
:103B4000DBB2202B40F07C81BB6A002B02D0BB8D06
:103B5000002B01D1012374E142F210730122974935
:103B6000F86800F023FB0346002B01D0022368E134
:103B7000FB6893F83430012B01D1022361E1FB682B
:103B8000012283F83420FB681B68FA681268126807
:103B900022F400621A60FB68222283F83520FB6859
:103BA000402283F83620FB6800229A63F8883A891D
:103BB00079893B6B00930346F86800F0D3F903461C
:103BC000002B0FD0FB689B6B042B05D1FB680022F8
:103BD00083F83420012334E1FB68002283F8342089
:103BE00003232EE1BB8D012B1BD1FB681B68FA68F8
:103BF0001268126822F480621A6072B6FB681B6851
:103C00005B69FB61FB681B689B69FB61FB69FB6887
:103C10001B68FA681268126842F400721A6062B691
:103C2000FCE0BB8D022B1BD1FB681B68FA68126895
:103C3000126842F400621A6072B6FB681B685B6926
:103C4000BB61FB681B689B69BB61BB69FB681B6848
:103C5000FA681268126822F480621A6062B6DDE0C7
:103C6000FB681B68FA681268126842F480621A6086
:103C7000FB681B685B697B61FB681B689B697B61F8
:103C80007B69CBE0BB8D032B00F29C80BB8D012BAD
:103C90001AD1396BF86800F0BDFB0346002B07D042
:103CA000FB689B6B202B01D10323CAE00123C8E0F2
:103CB000BB6A5A1CBA62FA6812681269D2B21A70E8
:103CC000BB8D013BBB85A9E0BB8D022B2BD13B6B90
:103CD00000223B49F86800F069FA0346002B01D046
:103CE0000323AEE072B6FB681B68FA6812681268BC
:103CF00042F400721A60BB6A5A1CBA62FA6812680F
:103D00001269D2B21A70BB8D013BBB8562B6BB6A29
:103D10005A1CBA62FA6812681269D2B21A70BB8D64
:103D2000013BBB857AE03B6B00222549F86800F037
:103D30003DFA0346002B01D0032382E0FB681B6899
:103D4000FA681268126822F480621A6072B6BB6A5E
:103D50005A1CBA62FA6812681269D2B21A70BB8D24
:103D6000013BBB853B6B00221549F86800F01EFA49
:103D70000346002B01D0032363E0FB681B68FA684D
:103D80001268126842F400721A60BB6A5A1CBA6266
:103D9000FA6812681269D2B21A70BB8D013BBB85FA
:103DA00062B6BB6A5A1CBA62FA6812681269D2B269
:103DB0001A70BB8D013BBB8530E000BF02001000D4
:103DC00004000100396BF86800F024FB0346002B67
:103DD00007D0FB689B6B202B01D1032331E001232B
:103DE0002FE0BB6A5A1CBA62FA6812681269D2B232
:103DF0001A70BB8D013BBB85FB681B685B6903F0D8
:103E00000403002B0AD0BB6A5A1CBA62FA68126813
:103E10001269D2B21A70BB8D013BBB85BB8D002BE2
:103E20007FF430AFFB68202283F83520FB68002246
:103E300083F83620FB68002283F83420002300E05A
:103E4000022318462037BD4680BD00BF80B586B02E
:103E500000AFF860084611461A4603467B810B46C0
:103E60003B811346FB80FB681B68FA681268126886
:103E700042F480721A603B6A00224FF00111F86828
:103E800000F094F90346002B01D0032363E0FB68A4
:103E90001B687A89D2B202F0FE021A613A6A30498E
:103EA000F86800F00DFA0346002B07D0FB689B6B07
:103EB000042B01D101234EE003234CE0FB681B6877
:103EC0005B697B61FB681B689B697B617B69396A05
:103ED000F86800F063FA0346002B0FD0FB689B6B79
:103EE000042B09D1FB681B68FA681268126842F457
:103EF00000721A6001232EE003232CE0FB88012BC3
:103F000005D1FB681B683A89D2B21A6122E0FB68CE
:103F10001B683A89120A92B2D2B21A61396AF868F9
:103F200000F03CFA0346002B0FD0FB689B6B042B80
:103F300009D1FB681B68FA681268126842F40072C3
:103F40001A60012307E0032305E0FB681B683A8938
:103F5000D2B21A61002318461837BD4680BD00BF93
:103F60000200010080B586B000AFF8600846114637
:103F70001A4603467B810B463B811346FB80FB6858
:103F80001B68FA681268126842F480621A60FB6863
:103F90001B68FA681268126842F480721A603B6A01
:103FA00000224FF00111F86800F000F90346002BE1
:103FB00001D00323A6E0FB681B687A89D2B202F025
:103FC000FE021A613A6A5149F86800F079F903462D
:103FD000002B07D0FB689B6B042B01D1012391E0E0
:103FE00003238FE0FB681B685B697B61FB681B68D0
:103FF0009B697B617B69396AF86800F0CFF90346F9
:10400000002B0FD0FB689B6B042B09D1FB681B684E
:10401000FA681268126842F400721A60012371E0B3
:1040200003236FE0FB88012B05D1FB681B683A89ED
:10403000D2B21A6122E0FB681B683A89120A92B276
:10404000D2B21A61396AF86800F0A8F90346002B69
:104050000FD0FB689B6B042B09D1FB681B68FA68C7
:104060001268126842F400721A6001234AE00323C6
:1040700048E0FB681B683A89D2B21A61396AF8686D
:1040800000F08CF90346002B0FD0FB689B6B042BD0
:1040900009D1FB681B68FA681268126842F4007262
:1040A0001A6001232EE003232CE0FB681B68FA68EA
:1040B0001268126842F480721A603B6A00224FF064
:1040C0000111F86800F072F80346002B01D00323B9
:1040D00018E0FB681B687A89D2B242F00102D2B2C2
:1040E0001A613A6A0949F86800F0EAF80346002BB9
:1040F00007D0FB689B6B042B01D1012302E0032353
:1041000000E0002318461837BD4680BD02000100BC
:1041100080B485B000AF786039600023FB607B68B5
:104120005B68214A93420FD87B685B685B003A6802
:10413000B2FBF3F3FB60FB68C3F30B03032B01D863
:1041400004232BE0FB6829E04FF40043FB607B680D
:104150009B68002B0BD17B685A6813465B001344A5
:104160003A68B2FBF3F3FA681343FB600EE07B6836
:104170005A6813469B0013449A0013443A68B2FBF2
:10418000F3F2FB68134343F48043FB60FB68C3F323
:104190000B03002B01D1012300E0FB681846143704
:1041A000BD4680BC704700BFA086010080B586B0C8
:1041B00000AFF860B9603B601346FB7100237B6180
:1041C000FDF7EEF97861FB79002B53D118E03B68DD
:1041D000B3F1FF3F14D03B68002B07D0FDF7E0F9A7
:1041E00002467B69D21A3B689A4209D9FB682022B1
:1041F00083F83520FB68002283F8342003235AE03B
:10420000BB681B0CDBB2012B0CD1FB681B685B6924
:10421000DA43BB6813409BB2002B14BF0123002379
:10422000DBB20BE0FB681B689B69DA43BB68134099
:104230009BB2002B14BF01230023DBB2002BC6D19D
:1042400038E03B68B3F1FF3F14D03B68002B07D048
:10425000FDF7A6F902467B69D21A3B689A4209D952
:10426000FB68202283F83520FB68002283F8342085
:10427000032320E0BB681B0CDBB2012B0CD1FB68D5
:104280001B685B69DA43BB6813409BB2002B0CBF11
:1042900001230023DBB20BE0FB681B689B69DA4358
:1042A000BB6813409BB2002B0CBF01230023DBB281
:1042B000002BC6D1002318461837BD4680BD00BF6D
:1042C00080B586B000AFF860B9607A6000237B618A
:1042D000FDF766F978613CE0FB681B685B6903F4F5
:1042E0008063002B1CD0FB681B68FA681268126898
:1042F00042F400721A60FB681B68FA68126852691F
:1043000022F480625A61FB6804229A63FB682022CF
:1043100083F83520FB68002283F83420012339E03C
:104320007B68B3F1FF3F14D07B68002B07D0FDF70B
:1043300037F902467B69D21A7B689A4209D9FB6831
:10434000202283F83520FB68002283F834200323E1
:1043500020E0BB681B0CDBB2012B0CD1FB681B6897
:104360005B69DA43BB6813409BB2002B14BF012387
:104370000023DBB20BE0FB681B689B69DA43BB6878
:1043800013409BB2002B14BF01230023DBB2002B90
:10439000A2D1002318461837BD4680BD80B584B031
:1043A00000AF78603960FDF7FBF8F86026E07868C8
:1043B00000F07EF80346002B01D0012326E03B6885
:1043C000B3F1FF3F1AD03B68002B07D0FDF7E8F8A8
:1043D0000246FB68D21A3B689A420FD97B689B6BF6
:1043E00043F020027B689A637B68202283F83520A3
:1043F0007B68002283F83420032307E07B681B6876
:104400005B6903F08003002BD1D0002318461037DE
:10441000BD4680BD80B584B000AF786039600023B0
:10442000FB60FDF7BDF8F86036E07B681B685B69F0
:1044300003F01003002B14D07B681B687A681268A5
:10444000526922F010025A617B6800229A637B68ED
:10445000202283F835207B68002283F83420012352
:1044600022E03B68002B07D0FDF79AF80246FB6874
:10447000D21A3B689A420FD97B689B6B43F02002AB
:104480007B689A637B68202283F835207B68002252
:1044900083F83420032307E07B681B685B6903F023
:1044A0004003002BC1D0002318461037BD4680BD05
:1044B00080B483B000AF78607B681B685B6903F4ED
:1044C0008063002B14D07B681B687A68126852697D
:1044D00022F480625A617B6804229A637B682022FE
:1044E00083F835207B68002283F83420012300E024
:1044F000002318460C37BD4680BC704780B584B099
:1045000004AFFDF70DF800F065F800F03FF900F09A
:10451000D9F800F01FF900F0A7F800F009FD00211C
:104520002548FEF709FD2548FEF7C0FC00F00EFC0B
:1045300041F28833029301230193214B009301231D
:1045400007221C211F48FFF7EBFA1D4B1B78C42BD9
:1045500008D1412319461C4800F016FC02211B48D3
:10456000FDF7E4FA41F28833029301230193144BDF
:104570000093012300221C211248FFF7D1FA104BAF
:104580001B7803F00803002BECD000F06DFA104B01
:104590001B68B3F5967F09DD412319460A4800F0F0
:1045A000F3FB02210948FDF7C1FADBE700220221F3
:1045B0000648FDF7A3FAD5E7840100202C0100206E
:1045C00004010020C8000020E0080108000C0140A0
:1045D0006801002080B590B000AF0123BB614FF4AB
:1045E0008033FB6100233B6202237B634FF4803303
:1045F000BB634FF4E013FB6307F118031846FDF7A4
:10460000A7FA0346002B01D000F0F2FC0F237B60D9
:104610000223BB600023FB604FF480633B610023F7
:104620007B613B1D02211846FEF7B2F90346002BC1
:1046300001D000F0DDFCFEF7E1FB0246094BA3FBD5
:1046400002239B091846FDF7C7F80420FDF7D0F8B0
:10465000002200214FF0FF30FDF794F800BF4037F3
:10466000BD4680BDD34D621080B500AF124B134ADA
:104670001A60114B124A5A600F4B00229A600E4B7F
:104680001C22DA600C4B4FF480421A610A4B002264
:104690005A61094BFE229A61074B0022DA61064BF0
:1046A00000221A620448FFF7E7F80346002B01D006
:1046B00000F09EFC00BF80BDC800002000540040F8
:1046C000A086010080B58AB000AF214B4FF0804238
:1046D0001A601F4B00225A601D4B00229A601C4B2F
:1046E0004FF40072DA601A4B00221A611848FEF784
:1046F000F7FB0346002B01D000F07AFC00233B625D
:1047000000237B6207F1200319461148FFF75CF88C
:104710000346002B01D000F06BFC60237B6000237C
:10472000BB600023FB6000237B613B1D0022194618
:104730000748FEF731FD0346002B01D000F058FC7E
:10474000034800F013FD00BF2837BD4680BD00BF01
:104750008401002080B500AF0A4B0B4A1A60094B58
:1047600000225A60074B00229A60064B41F29412D5
:10477000DA60044B00221A610248FEF76BFB00BFAF
:1047800080BD00BF2C0100200004004080B588B02F
:1047900000AF1C4A1B4B9B6943F020039361194BEC
:1047A0009B6903F02003FB60FB68164A154B9B696D
:1047B00043F004039361134B9B6903F00403BB6054
:1047C000BB68104A0F4B9B6943F0080393610D4B84
:1047D0009B6903F008037B607B68002202210A4882
:1047E000FDF78CF902233B6101237B610223FB610E
:1047F00007F1100319460448FDF722F800BF2037DF
:10480000BD4680BD00100240000C014000000000C9
:1048100090B585B000AF786039608F4B1B687A68BF
:10482000D31A7B608D4B1B683A68D31A3B607B6858
:10483000002B09D13B68002B02DD5A23FB6001E10C
:104840004FF48773FB60FDE03B68002B08D17B6869
:10485000002B02DD0023FB60F4E0B423FB60F1E0F9
:104860007B68002B2FDD3B68002B2CDD3868FCF7C4
:104870007FFC04467868FCF77BFC0346194620461B
:10488000FCF77EFD03461846FCF7A2F803460C46EB
:10489000184621460BF060FC4FF00002704BFCF70D
:1048A000EBF803460C461846214669A3D3E90023DA
:1048B000FCF70CFA03460C4618462146FCF776FB3B
:1048C0000346FB60BEE07B68002B3BDA3B68002BB5
:1048D00038DD7B685B427B603868FCF749FC044646
:1048E0007868FCF745FC034619462046FCF748FD6E
:1048F00003461846FCF76CF803460C46184621465A
:104900000BF02AFC4FF00002554BFCF7B5F80346BC
:104910000C46184621464EA3D3E90023FCF7D6F9EE
:1049200003460C461A4623464FF000004C49FBF75D
:10493000EFFE03460C4618462146FCF737FB0346BC
:10494000FB607FE07B68002B3EDA3B68002B3BDAA4
:104950007B685B427B603B685B423B603868FCF78E
:1049600007FC04467868FCF703FC0346194620461A
:10497000FCF706FD03461846FCF72AF803460C46EA
:10498000184621460BF0E8FB4FF00002344BFCF7D1
:1049900073F803460C46184621462DA3D3E900239D
:1049A000FCF794F903460C46184621464FF00002E6
:1049B0002B4BFBF7AFFE03460C4618462146FCF78F
:1049C000F5FA0346FB603DE07B68002B3ADD3B686F
:1049D000002B37DA3B685B423B603868FCF7C8FB6A
:1049E00004467868FCF7C4FB034619462046FCF7EA
:1049F000C7FC03461846FBF7EBFF03460C46184678
:104A000021460BF0A9FB4FF00002154BFCF734F8E0
:104A100003460C46184621460DA3D3E90023FCF7B4
:104A200055F903460C461A4623464FF000000D493F
:104A3000FBF76EFE03460C4618462146FCF7B6FA15
:104A40000346FB60FB689BB218461437BD4690BD19
:104A50001F85EB51B81E09409400002098000020EB
:104A6000008066400080764080B588B004AF42F296
:104A70001073029301230193744B009301230122CD
:104A80001C217348FFF74CF8704B1B783B7342F2C4
:104A900010730293012301936C4B009301230222B4
:104AA0001C216B48FFF73CF8684B1B787B7342F284
:104AB0001073029301230193644B0093012303229B
:104AC0001C216348FFF72CF8604B1B783B7242F2C5
:104AD00010730293012301935C4B00930123042282
:104AE0001C215B48FFF71CF8584B1B787B7242F285
:104AF0001073029301230193544B00930123052269
:104B00001C215348FFF70CF8504B1B783B7142F2C5
:104B100010730293012301934C4B0093012306224F
:104B20001C214B48FEF7FCFF484B1B787B713B7BFD
:104B30001B027A7B1344194646480AF073FC3B7A01
:104B40001B027A7A1344194643480AF06BFC3B79FE
:104B50001B027A791344194640480AF063FC3B7BF8
:104B60001B027A7B13443E4A13603B7A1B027A7A1B
:104B700013443C4A13603C4B1B78002B12D1384B3A
:104B80001B683A4A1360364B1B68394A1360354B31
:104B90001B68384A1360334B1B68374A1360324B2B
:104BA00001221A702E4B1A68304B1B689A4204DDA2
:104BB0002B4B1B682D4A136009E0294B1A682C4BBC
:104BC0001B689A4203DA264B1B68294A1360254B5F
:104BD0001A68284B1B689A4204DD224B1B68254A41
:104BE000136009E01F4B1A68234B1B689A4203DAD3
:104BF0001C4B1B68204A13601C4B1A681C4B1B681B
:104C00001344DA0F13445B101A461C4B1A60194BFD
:104C10001A68194B1B681344DA0F13445B101A46C9
:104C2000174B1A603B7B1B027A7B1A443B7A1B02B0
:104C3000797A0B4419461046FFF7EAFD03461A46F7
:104C4000104B1A6000BF1037BD4680BD0401002024
:104C5000C8000020440501084C050108540501085E
:104C6000AC000020B0000020B40000209C00002018
:104C7000A4000020A0000020A80000209400002034
:104C8000980000206801002080B586B004AF41F292
:104C90008833029301230193134B009301231022C5
:104CA0001C211248FEF73CFF0F4B1B78FB7197F954
:104CB000073023F003035BB243F001035BB2DAB2C7
:104CC000094B1A7041F28833029301230193064B7A
:104CD0000093012310221C210448FEF753FE00BF5D
:104CE0000837BD4680BD00BF04010020C800002079
:104CF00080B586B004AF41F288330293012301935B
:104D0000104B0093012310221C210F48FEF708FFCF
:104D10000C4B1B78FB71FB7923F00303DAB2094BD0
:104D20001A7041F28833029301230193054B0093DB
:104D3000012310221C210448FEF724FE00BF08377F
:104D4000BD4680BD04010020C800002080B584B0AD
:104D500004AFFFF7CDFF0A4B40221A7041F28833AF
:104D6000029301230193064B0093012310221C217F
:104D70000448FEF707FEFFF787FF00BFBD4680BD72
:104D800004010020C800002080B584B000AF786026
:104D90000B467B8000237B810023FB600EE07B8938
:104DA0007A68134419785A4AFB6813440A461A7001
:104DB0007B8901337B81FB680133FB60FB68132B2C
:104DC000EDDD14225249534800F084FA524B1B681F
:104DD000524A5049184601F00FFD0023FB600EE0D7
:104DE0007B897A6813441978494AFB6813440A4658
:104DF0001A707B8901337B81FB680133FB60FB68A0
:104E0000132BEDDD14224249424800F063FA424B75
:104E10001B68434A3F49184601F0EEFC414B1B8892
:104E20009BB201339AB23F4B1A805FE03E4B1B7836
:104E3000DBB2012B2AD10023FB600EE07B897A686C
:104E400013441978324AFB6813440A461A707B8966
:104E500001337B81FB680133FB60FB68132BEDDDC5
:104E600014222B492B4800F035FA2B4B1B682B4A98
:104E70002849184601F0C0FC2B4B00221A70294B20
:104E80001B889BB201339AB2264B1A80264B1B78A3
:104E9000DBB2022B2AD10023FB600EE07B897A680B
:104EA000134419781A4AFB6813440A461A707B891E
:104EB00001337B81FB680133FB60FB68132BEDDD65
:104EC00014221349134800F005FA134B1B68144AC7
:104ED0001049184601F090FC134B00221A70114B38
:104EE0001B889BB201339AB20E4B1A800D4B1B8864
:104EF0009BB27A889A4299D800237B81094B002281
:104F00001A800A4B054A1A6000BF1037BD4680BDA3
:104F10007001002008010020C4000020C001002012
:104F200000030020920000209000002004000020D8
:104F300080B500AF084800F097F9084801F04EFC32
:104F40000246074B1A60064B1B68064A00211846AA
:104F500001F078FC00BF80BD080100203017010877
:104F6000C40000200800002080B582B000AF1A48BD
:104F7000FEF70AF8194B1B681B881BB25B111BB2AA
:104F80009BB203F50073FB804FF08042FB885363B4
:104F9000124B1B68124A934206D1104B114A1A60F9
:104FA000114B02221A7012E00C4B1B680F4A9342FD
:104FB00008D10A4B1B680233084A13600A4B0122CE
:104FC0001A7004E0054B1B680233044A136000BFEB
:104FD0000837BD4680BD00BF2C0100200400002022
:104FE0003E040020C001002090000020FE020020AE
:104FF00080B400AFFEE700BF80B582B000AF224AA8
:10500000214B9B6943F0010393611F4B9B6903F0A4
:1050100001037B607B680320FCF7A8FB00220021D2
:105020006FF00B00FCF7AEFB002200216FF00A00CE
:10503000FCF7A8FB002200216FF00900FCF7A2FB9F
:10504000002200216FF00400FCF79CFB00220021ED
:105050006FF00300FCF796FB002200216FF00100C7
:10506000FCF790FB002200214FF0FF30FCF78AFB99
:10507000064A064B5B6823F0E06343F0007353601D
:1050800000BF0837BD4680BD00100240000001404F
:1050900080B588B000AF78607B681B680F4A934288
:1050A00017D1C0233B6112237B610323FB6107F10E
:1050B000100319460A48FCF7C3FB0A4A094BDB698F
:1050C00043F40013D361074BDB6903F40013FB6067
:1050D000FB6800BF2037BD4680BD00BF00540040C4
:1050E000000C01400010024080B485B000AF786031
:1050F0007B681B68B3F1804F0BD1084A074BDB6913
:1051000043F00103D361054BDB6903F00103FB604E
:10511000FB6800BF1437BD4680BC704700100240DA
:1051200080B584B000AF78607B681B680D4A9342FD
:1051300013D10D4A0C4BDB6943F00203D3610A4BD8
:10514000DB6903F00203FB60FB68002200211D20E5
:10515000FCF718FB1D20FCF731FB00BF1037BD46E4
:1051600080BD00BF000400400010024080B586B042
:1051700000AF78607B681B68B3F1804F0BD10123CF
:10518000BB600223FB6002237B6107F10803194621
:105190000348FCF755FB00BF1837BD4680BD00BF74
:1051A0000008014080B400AF00BFBD4680BC70471E
:1051B00080B400AFFEE700BF80B400AFFEE700BFE1
:1051C00080B400AFFEE700BF80B400AFFEE700BFD1
:1051D00080B400AF00BFBD4680BC704780B400AF54
:1051E00000BFBD4680BC704780B400AF00BFBD4665
:1051F00080BC704780B500AFFCF7C4F9FCF714FB26
:1052000000BF80BD80B582B000AF78607B680121AF
:10521000184609F0EBFF034618460837BD4680BD27
:1052200080B582B000AF786039603B681946786815
:105230000AF010F9034618460837BD4680BD00BF86
:1052400080B483B000AF786000BF0C37BD4680BC2F
:10525000704700BF80B483B000AF786000BF0C37E8
:10526000BD4680BC704700BF80B582B000AF78609B
:105270001420FFF7C7FF02467B681A607B681B6833
:10528000002B09D07B6814229A617B6801221A6185
:10529000786800F005F800E000BF0837BD4680BD23
:1052A00080B483B000AF78607B681B6800221A70FE
:1052B0007B6800225A607B6800229A607B6800222B
:1052C000DA607B6800225A6100BF0C37BD4680BCA3
:1052D000704700BF80B588B000AFF860B9607A60F1
:1052E0007B68BB61FB689A69BB699A4224DA2448EF
:1052F000FFF7B0FFFB681B69002B17D0FB681B682A
:10530000B9691846FFF78CFF78617B69002B06D0DE
:10531000FB68BA699A61FB687A691A600CE0FB68FD
:105320009B69BB611748FFF78BFF05E01648FFF745
:1053300087FFFB689B69BB610023FB610BE0FB6897
:105340001A68FB691344FA69B9680A4412781A703A
:10535000FB690133FB61FA69BB699A42EFDBBB6908
:10536000DA00FB685A60FB6800229A60FB68002242
:10537000DA60FB6800225A6100BF2037BD4680BD5D
:105380005C05010884050108B405010880B588B0F2
:1053900000AFF860B9607A60BB68FB61FB689A682F
:1053A000FB68D9687B680B44DB101A44FB689B6977
:1053B0009A4267DB3648FFF74DFFFB681B69002BFD
:1053C0001CD0FB689B695A1D13465B0013445B109D
:1053D000BB61FB681B68B9691846FFF721FF78615C
:1053E0007B69002B06D0FB68BA699A61FB687A6911
:1053F0001A6047E02748FFF723FF46E02648FFF7FB
:105400001FFF42E07B68013BFA6922FA03F303F0D5
:1054100001033B61FB681B68FA6892681344FA68F1
:105420001268F96889680A44127851B2FA68D26839
:10543000C2F10702386900FA02F252B20A4352B2CC
:10544000D2B21A70FB68DB685A1CFB68DA60FB6832
:10545000DB68082B0ED1FB680022DA60FB689B68D2
:105460005A1CFB689A60FB681B68FA6892681344D0
:1054700000221A70FB685B685A1CFB685A607B68E4
:10548000013B7B607B68002BBCD12037BD4680BDD3
:1054900024060108440601087006010880B485B09E
:1054A00000AF786039600023FB607B689B68DA009E
:1054B0007B68DB681A443B681A447B685B689A42E5
:1054C00002DD7B6801225A617B685B69002B2AD070
:1054D00000232CE0FB685B00FB607B681B687A683C
:1054E000926813441B781A467B68DB68C3F1070394
:1054F00042FA03F303F00103FA681343FB607B688D
:10550000DB685A1C7B68DA607B68DB68082B07D194
:105510007B680022DA607B689B685A1C7B689A6013
:105520003B68013B3B603B68002BD3D1FB681846CE
:105530001437BD4680BC704780B483B000AF78603C
:1055400039607B689B68DA007B68DB681A443B68DB
:105550001A447B685B689A4203DC7B685B69002BBA
:1055600003D07B6801225A6111E07B689A687B68EE
:10557000D9683B680B44DB101A447B689A607B68EF
:10558000DA683B68134403F007027B68DA600C3783
:10559000BD4680BC704700BF80B483B000AF786068
:1055A0007B685B69002B02D04FF0FF3308E07B681B
:1055B0005A687B689B68D9007B68DB680B44D31A08
:1055C00018460C37BD4680BC704700BF90B48AB007
:1055D00000AFF860B9607A60BB681B88FB83BB686A
:1055E000B3F90030002B11D100237B6208E07B6A05
:1055F0005B00FA68134400221A807B6A01337B62E5
:105600007A6A7B689A42F2DB0023CCE000237B625B
:10561000C2E07B6A01335B00BA681344B3F900301F
:105620005B035B42BB6100233B6216E03B6A5B00AD
:10563000FA681344B3F9003019467A6A3B6AD31A00
:105640005B00BA681344B3F9003003FB01F3BA6995
:10565000D31ABB613B6A01333B623A6A7B6A9A4266
:10566000E4DBB7F91E3001335A10BB691344FA8BDF
:10567000083292B212B293FBF2F3FB827B6A5B00B8
:10568000FA681344FA8A1A8000233B6247E03B6AB7
:105690005B00FA6813441B88BB823B6A5B00FA68B4
:1056A00013443A6A5200F9680A44B2F9002091B2F0
:1056B000B7F91620786A441E386A201A4000FC6840
:1056C0002044B0F9000000FB02F202F580525213B0
:1056D00092B20A4492B212B21A807B6A5A1E3B6A94
:1056E000D31A5B00FA6813447A6A511E3A6A8A1A1E
:1056F0005200F9680A44B2F9002091B2B7F91620B5
:10570000B7F9140000FB02F202F58052521392B274
:105710000A4492B212B21A803B6A01333B627B6A3E
:105720005A103B6A9A42B2DC7B6A03F00103002BF9
:105730001DD03B6A5B00FA6813443A6A5200F9686C
:105740000A44B2F9002091B23A6A5200F868024461
:10575000B2F900201046B7F9162002FB00F202F55C
:105760008052521392B20A4492B212B21A80FA8B49
:10577000B7F91630B7F91E10B7F9160000FB01F1A2
:10578000491309B201FB03F35B139BB2D31A9BB21B
:10579000FB837B6A01337B627A6A7B689A42FFF6FD
:1057A00038AFB7F91E3018462837BD4690BC704751
:1057B00080B48BB000AFF860B9607A603B600123C1
:1057C000BB610023FB6115E0FB695B00FA681344D1
:1057D000B3F900301946FB695B00FA681344B3F96A
:1057E000003003FB01F31B12BA691344BB61FB6970
:1057F0000133FB61FA693B689A42E5DBBA693B68B1
:105800001344BB6108237B6105E07B69013B7B613D
:10581000BB695B00BB617B69002B03D0BB69B3F143
:10582000804FF2DB12233B6105E03B69013B3B61AA
:10583000BB695B00BB613B69002B03D0BB69B3F163
:10584000804FF2DB00233B622FE000237B623B6A48
:10585000FB6119E0FB695B00FA681344B3F900309F
:105860001946FA693B6AD31A5B00FA681344B3F924
:10587000003003FB01F27B6942FA03F37A6A1344B6
:105880007B62FB690133FB61FA693B689A42E1DBA9
:105890003B6A5B00BA681344796A3A6941FA02F2DA
:1058A00012B21A803B6A01333B623A6A7B689A42C1
:1058B000CBDB00BF2C37BD4680BC704780B485B0C1
:1058C00000AF78600023FB607B68B3F5803F05D3B1
:1058D0007B681B0C7B60FB680833FB607B68FF2BDD
:1058E00005D97B681B0A7B60FB680433FB607B681F
:1058F0000F2B05D97B681B097B60FB680233FB60BB
:105900007B68032B02D9FB680133FB60FB681BB289
:1059100018461437BD4680BC704700BF80B584B0C0
:1059200000AF78607B681846FFF7C8FF0346063B68
:10593000FB60FB685B00002B05DDFB685B007A68A1
:1059400042FA03F305E0FB685B005B427A6802FA07
:1059500003F37B607B681BB21A467B681BB2194657
:105960007B681BB2184641F26C0303FB00F39B13E8
:105970009BB2A3F54553133B9BB21BB203FB01F350
:105980009B139BB203F5A54335339BB21BB203FBBC
:1059900002F39B139BB203F632639BB21BB2BB6054
:1059A000FB68C3F10703002B06DDFB68C3F10703A7
:1059B000BA6842FA03F304E0FB68073BBA6802FAEC
:1059C00003F3BB60BB681BB218461037BD4680BDF1
:1059D00080B584B000AF0346FB800023FB60B7F9BD
:1059E0000630002B05DA0123FB60FB885B429BB28B
:1059F000FB80FB88C3F580439BB2FB80B7F9063080
:105A00005B10FB80B7F90620B7F90630B7F906102E
:105A100040F2CE5000FB01F1491389B201F6C201F8
:105A200089B209B201FB03F35B139BB203F5804318
:105A300055339BB21BB203FB02F35B133B81B7F9F7
:105A400008305B031846FFF769FF03467B81FB685C
:105A5000002B05D07B89C3F5C94308339BB27B81FA
:105A6000B7F90A3018461037BD4680BD80B485B0FE
:105A700000AF0346FB80B7F9063043F2432293425E
:105A800030DCB7F90630B7F9062002FB03F303F563
:105A900080535B13FB81B7F90E30B7F90E20B7F9CD
:105AA0000E106FF0090000FB01F101F58051491360
:105AB00089B201F5AA7189B209B201FB02F202F5BD
:105AC0008052521392B2A2F5805292B212B202FBED
:105AD00003F303F580535B139BB203F500539BB2B2
